:100000000C942E000C9440000C9440000C94400082
:100010000C9440000C9440000C9440000C94400060
:100020000C9440000C9440000C946E000C94400022
:100030000C9440000C9440000C9440000C94400040
:100040000C9440000C9440000C9440000C94400030
:100050000C9440000C9440000C94400011241FBEEE
:10006000CFEFD4E0DEBFCDBF21E0A0E0B1E001C022
:100070001D92A335B207E1F70E9442000C942708B5
:100080000C940000CF93DF9300D000D000D0CDB708
:10009000DEB70E948A040E9468030E94DC0384E2A7
:1000A00090E02FEFFC01208385E08093450186E4FA
:1000B00090E0FC01108284E490E0209145012860EA
:1000C000FC0120838EE690E022E0FC01208387E49F
:1000D00090E024E8FC0120837894FFCF1F920F92D8
:1000E00000905F000F9211242F933F934F935F93E3
:1000F0006F937F938F939F93AF93BF93EF93FF93F0
:10010000CF93DF9300D000D0CDB7DEB780E091E091
:100110000E94A5036EE071E087E091E00E94280450
:100120008EE690E0FC0110821A82198221C089813A
:100130009A8180509F4FFC018081282F20958981D2
:100140009A8180509F4FFC01208389819A81805041
:100150009F4FFC018081282F2F5F89819A818050D9
:100160009F4FFC01208389819A8101969A8389831C
:1001700089819A8188309105D4F28EE690E022E060
:10018000FC01208380910101882F90E0382F2227E5
:1001900080910201882F90E0822B932BAA2797FD54
:1001A000A095BA2FBC01CD010E941007DC01CB0144
:1001B0008093460190934701A0934801B093490171
:1001C00080910301882F90E0382F2227809104012D
:1001D000882F90E0822B932BAA2797FDA095BA2F0A
:1001E000BC01CD010E941007DC01CB0180934A01C4
:1001F00090934B01A0934C01B0934D018091050168
:10020000882F90E0382F222780910601882F90E0D8
:10021000822B932BAA2797FDA095BA2FBC01CD0165
:100220000E941007DC01CB0180934E0190934F0197
:10023000A0935001B09351011C821B8229C08B8175
:100240009C81880F991F880F991F8A5B9E4FFC0124
:1002500080819181A281B38120E030ED4CE755E4AB
:10026000BC01CD010E94A606DC01CB012B813C81A3
:10027000220F331F220F331F2A5B3E4FF901808369
:100280009183A283B3838B819C8101969C838B8312
:100290008B819C818330910594F20E9469010E94B8
:1002A00085020F900F900F900F90DF91CF91FF91EB
:1002B000EF91BF91AF919F918F917F916F915F91DE
:1002C0004F913F912F910F9000925F000F901F90E0
:1002D0001895CF93DF93CDB7DEB7A6970FB6F894F6
:1002E000DEBF0FBECDBF8DEC9CECACE4BDE38B83D9
:1002F0009C83AD83BE838AE090E098878F838EE6EF
:1003000090E0FC0110821A8219823DC089819A8195
:10031000895F9E4FFC018081282F209589819A81D9
:10032000895F9E4FFC01208389819A81895F9E4F5E
:10033000FC018081282F2F5F89819A81895F9E4FE0
:10034000FC01208389819A81825F9E4FFC0180811C
:10035000282F209589819A81825F9E4FFC012083FE
:1003600089819A81825F9E4FFC018081282F2F5FB7
:1003700089819A81825F9E4FFC01208389819A81C5
:1003800001969A83898389819A81883091050CF43A
:10039000BDCF80910801882F90E0382F22278091CF
:1003A0000901882F90E0822B932B9C8F8B8F80915B
:1003B0000A01882F90E0382F222780910B01882F87
:1003C00090E0822B932B9E8F8D8F80910C01882F34
:1003D00090E0382F222780910D01882F90E0822B0A
:1003E000932B98A38F8F80910F01882F90E0382F47
:1003F000222780911001882F90E0822B932B9AA3C3
:1004000089A380911101882F90E0382F22278091B5
:100410001201882F90E0822B932B9CA38BA38091B9
:100420001301882F90E0382F222780911401882F04
:1004300090E0822B932B9EA38DA38EE690E022E08A
:10044000FC0120838B8D9C8DAA2797FDA095BA2F48
:10045000BC01CD010E941007DC01CB012FE635EF76
:100460004CE95BE3BC01CD010E94C407DC01CB0178
:100470008093390190933A01A0933B01B0933C01E2
:100480008D8D9E8DAA2797FDA095BA2FBC01CD0119
:100490000E941007DC01CB012FE635EF4CE95BE34E
:1004A000BC01CD010E94C407DC01CB0180933D015A
:1004B00090933E01A0933F01B09340018F8D98A18E
:1004C000AA2797FDA095BA2FBC01CD010E94100765
:1004D000DC01CB012FE635EF4CE95BE3BC01CD013C
:1004E0000E94C407DC01CB0180934101909342013B
:1004F000A0934301B0934401A6960FB6F894DEBFD3
:100500000FBECDBFDF91CF910895CF93DF93CDB7CD
:10051000DEB72A970FB6F894DEBF0FBECDBF8DECC5
:100520009CECACE4BDE38F839887A987BA871E82D1
:100530001D82BFC08D819E81880F991F880F991FD2
:10054000875C9E4FFC0180819181A281B38120E074
:1005500030E048E251E4BC01CD010E94A2068823AC
:10056000E4F48D819E81880F991F880F991F875C05
:100570009E4FFC0180819181A281B38120E030E017
:1005800048E251ECBC01CD010E94C00718162CF4C2
:1005900019821A821B821C822FC08D819E81880F36
:1005A000991F880F991F875C9E4FFC018081918164
:1005B000A281B3812F81388549855A85BC01CD013F
:1005C0000E94C407DC01CB012F81388549855A85FB
:1005D000BC01CD010E94C407DC01CB0120E030E06A
:1005E00040E05FE3BC01CD010E94C407DC01CB0108
:1005F00089839A83AB83BC838D819E81880F991FE9
:10060000880F991F8F5D9E4FFC0180819181A2818F
:10061000B38129813A814B815C81BC01CD010E946B
:100620003E06DC01CB012D813E81220F331F220FBC
:10063000331F2B5E3E4FF90180839183A283B383E6
:100640008D819E81880F991F880F991F8B5E9E4F09
:10065000FC0180819181A281B3812D813E81220F95
:10066000331F220F331F2F5D3E4FF901808391838B
:10067000A283B3838D819E81880F991F880F991F54
:10068000875C9E4FFC0180819181A281B3812D8185
:100690003E81220F331F220F331F235D3E4FF9018E
:1006A00080839183A283B3838D819E8101969E83F3
:1006B0008D838D819E81833091050CF43BCF2A96EA
:1006C0000FB6F894DEBF0FBECDBFDF91CF91089576
:1006D000CF93DF93CDB7DEB729970FB6F894DEBF7F
:1006E0000FBECDBF8EE189838981880F8B831C82E9
:1006F00088E78D83CE01039663E070E00E94C40416
:100700008A838981880F8B8381E08C8380EE8D833F
:10071000CE01039663E070E00E94C4048A8389815D
:10072000880F8B8382E08C831D82CE01039663E069
:1007300070E00E94C4048A8329960FB6F894DEBF45
:100740000FBECDBFDF91CF910895CF93DF9300D03F
:1007500000D0CDB7DEB79C838B838EE189838981FE
:10076000282F220F8B819C81FC0120838B819C810F
:10077000019623E0FC0120838B819C8162E070E084
:100780000E94C4048A838981882F90E0880F991F72
:100790008160282F8B819C81FC0120838B819C812F
:1007A00067E070E00E94C4048A830F900F900F905E
:1007B0000F90DF91CF910895CF93DF93CDB7DEB740
:1007C00029970FB6F894DEBF0FBECDBF88E68983A8
:1007D0008981880F8B838BE68C831D82CE010396E3
:1007E00063E070E00E94C4048A838981880F8B8350
:1007F00089E18C838DE08D83CE01039663E070E008
:100800000E94C4048A838981880F8B838AE18C8348
:1008100086E08D83CE01039663E070E00E94C404FD
:100820008A838981880F8B838CE18C8388E18D8317
:10083000CE01039663E070E00E94C4048A83299687
:100840000FB6F894DEBF0FBECDBFDF91CF910895F4
:10085000CF93DF9300D000D000D0CDB7DEB79C831C
:100860008B837E836D8388E689838981282F220F7D
:100870008B819C81FC0120838B819C8101962BE3E1
:10088000FC0120838B819C8162E070E00E94C404A3
:100890008A838981882F90E0880F991F8160282F93
:1008A0008B819C81FC0120838B819C8167E070E0BF
:1008B0000E94C4048A838981282F220F8D819E8102
:1008C000FC0120838D819E81019623E4FC0120831D
:1008D0008D819E8162E070E00E94C4048A838981D8
:1008E000882F90E0880F991F8160282F8D819E812D
:1008F000FC0120838D819E8167E070E00E94C4042A
:100900008A8326960FB6F894DEBF0FBECDBFDF9167
:10091000CF910895CF93DF93CDB7DEB78EE290E00D
:100920002EE230E0F90120812062FC0120838EE27A
:1009300090E02EE230E0F90120812061FC0120836B
:100940008DE290E02DE230E0F90120812061FC0190
:1009500020838DE290E02DE230E0F90120812062D9
:10096000FC0120838AEB90E02FEFFC01208388EBD1
:1009700090E02AE2FC01208389EB90E020EFFC016B
:100980002083DF91CF910895CF93DF9300D000D0E3
:100990001F92CDB7DEB79C838B836D8380EF8983F5
:1009A0008EEF8A8310925201809152018160809370
:1009B00052018B819C81FC018081882F90E08170A5
:1009C0009927009729F48091520182608093520107
:1009D0008EE290E02EE230E0F90120812061FC01FE
:1009E000208300008EE290E0FC018081882F90E05F
:1009F000807199270097B1F383E090E00E94270669
:100A00008EE290E02EE230E0F90120812F7DFC01A2
:100A1000208383E090E00E9427068EE290E02EE2A1
:100A200030E0F90120812F7EFC0120838EE290E0EE
:100A30002EE230E0F90120812062FC0120838091C8
:100A400052018170882331F4809152018270882391
:100A500009F43FC08EE290E02EE230E0F9012081FF
:100A60002F7EFC0120838AEB90E02B813C81F901F1
:100A70002081FC0120838B819C8101969C838B8348
:100A800089810E94A1058DE290E02DE230E0F9011C
:100A900020812F7DFC0120838A810E94A105882F5F
:100AA00090E081709927009771F0809152018170D8
:100AB000882321F086E08093520103C085E0809373
:100AC000520180E036C0809152018E7F80935201A6
:100AD00026C08DE290E02DE230E0F90120812F7DEB
:100AE000FC01208389810E94A105282F8B819C8194
:100AF000FC0120838B819C8101969C838B838D815B
:100B0000813031F48AEB90E02FEFFC01208304C0A8
:100B10008AEB90E0FC0110828A810E94A1058D8100
:100B200081508D838D81882309F089CF0E94F10542
:100B300081E00F900F900F900F900F90DF91CF9169
:100B40000895CF93DF931F92CDB7DEB7898389EBEA
:100B500090E02981FC0120838BE2898386E090E08C
:100B60000E94270688EB90E02981FC012083000089
:100B70008CE290E0FC018081882F90E080719927C1
:100B80000097B1F383E090E00E94270688EB90E0A5
:100B90002981FC01208389EB90E0FC018081882F72
:100BA00090E0807499270097C9F286E090E00E9457
:100BB00027068AEB90E0FC01808189838AEB90E034
:100BC0002FEFFC0120838DE290E02DE230E0F9016F
:100BD00020812062FC01208389810F90DF91CF91D9
:100BE0000895CF93DF93CDB7DEB78EE290E02EE28B
:100BF00030E0F90120812F7DFC0120838EE290E01E
:100C00002EE230E0F90120812061FC012083000008
:100C10008CE290E0FC018081882F90E08071992720
:100C20000097B1F383E090E00E9427068EE290E007
:100C30002EE230E0F90120812062FC01208386E071
:100C400090E00E94270681E0DF91CF910895CF9335
:100C5000DF9300D0CDB7DEB79A8389830000898106
:100C60009A8101979A83898389819A810097B1F744
:100C70000F900F90DF91CF9108955058BB27AA276E
:100C80000ED044C135D130F03AD120F031F49F3F3D
:100C900011F41EF42AC10EF4E095E7FB20C1E92F00
:100CA00046D180F3BA17620773078407950718F0D7
:100CB00071F49EF55EC10EF4E0950B2EBA2FA02DB7
:100CC0000B01B90190010C01CA01A0011124FF27F9
:100CD000591B99F0593F50F4503E68F11A16F040F4
:100CE000A22F232F342F4427585FF3CF46953795F3
:100CF0002795A795F0405395C9F77EF41F16BA0BB8
:100D0000620B730B840BBAF09150A1F0FF0FBB1F65
:100D1000661F771F881FC2F70EC0BA0F621F731FAE
:100D2000841F48F4879577956795B795F7959E3F0B
:100D300008F0B3CF9395880F08F09927EE0F979599
:100D400087950895A8D008F481E008950CD0DEC0FE
:100D5000D6D040F0CDD030F021F45F3F19F0BFC0C5
:100D6000511108C1C2C0E3D098F39923C9F35523A8
:100D7000B1F3951B550BBB27AA276217730784078E
:100D800038F09F5F5F4F220F331F441FAA1FA9F344
:100D900033D00E2E3AF0E0E830D091505040E69536
:100DA000001CCAF729D0FE2F27D0660F771F881F97
:100DB000BB1F261737074807AB07B0E809F0BB0B86
:100DC000802DBF01FF2793585F4F2AF09E3F5105AA
:100DD00068F085C0CFC05F3FECF3983EDCF38695AA
:100DE00077956795B795F7959F5FC9F7880F911D20
:100DF0009695879597F90895E1E0660F771F881F0C
:100E0000BB1F621773078407BA0720F0621B730BBE
:100E1000840BBA0BEE1F88F7E0950895E89409C09B
:100E200097FB3EF490958095709561957F4F8F4F1D
:100E30009F4F9923A9F0F92F96E9BB279395F69533
:100E4000879577956795B795F111F8CFFAF4BB0FB1
:100E500011F460FF1BC06F5F7F4F8F4F9F4F16C015
:100E6000882311F096E911C0772321F09EE8872F9F
:100E7000762F05C0662371F096E8862F70E060E05B
:100E80002AF09A95660F771F881FDAF7880F9695D4
:100E9000879597F90895990F0008550FAA0BE0E878
:100EA000FEEF16161706E807F907C0F0121613062C
:100EB000E407F50798F0621B730B840B950B39F46C
:100EC0000A2661F0232B242B252B21F408950A26D2
:100ED00009F4A140A6958FEF811D811D089597F912
:100EE0009F6780E870E060E008959FEF80EC0895D0
:100EF00000240A94161617061806090608950024F9
:100F00000A9412161306140605060895092E039472
:100F1000000C11F4882352F0BB0F40F4BF2B11F4E6
:100F200060FF04C06F5F7F4F8F4F9F4F089557FD45
:100F30009058440F551F59F05F3F71F04795880F47
:100F400097FB991F61F09F3F79F0879508951216DE
:100F500013061406551FF2CF4695F1DF08C016168A
:100F600017061806991FF1CF86957105610508943B
:100F70000895E894BB2766277727CB0197F9089552
:100F80008ADF08F48FEF08950BD0C0CFB1DF28F0CF
:100F9000B6DF18F0952309F0A2CFA7CF1124EACF2E
:100FA000C6DFA0F3959FD1F3950F50E0551F629FC8
:100FB000F001729FBB27F00DB11D639FAA27F00DB2
:100FC000B11DAA1F649F6627B00DA11D661F829FD9
:100FD0002227B00DA11D621F739FB00DA11D621FBE
:100FE000839FA00D611D221F749F3327A00D611DDB
:100FF000231F849F600D211D822F762F6A2F1124BD
:101000009F5750408AF0E1F088234AF0EE0FFF1F0F
:10101000BB1F661F771F881F91505040A9F79E3F46
:10102000510570F05CCFA6CF5F3FECF3983EDCF348
:10103000869577956795B795F795E7959F5FC1F783
:10104000FE2B880F911D9695879597F90895F89432
:02105000FFCFD0
:00000001FF
